:020000040800F2
:1000000000280020B11500083D1300084313000824
:10001000491300084F1300085513000800000000A2
:100020000000000000000000000000005B1300085A
:100030006713000800000000731300087F13000816
:10004000F9150008F9150008F9150008F915000858
:10005000F9150008F9150008F9150008F915000848
:10006000F9150008F9150008F9150008F915000838
:10007000F9150008F9150008F9150008F915000828
:10008000F9150008F9150008F9150008F915000818
:10009000F9150008F9150008F9150008F915000808
:1000A000F9150008F9150008F9150008F9150008F8
:1000B0008D130008F915000800000000F91500086C
:1000C000F91500080000000000000000F915000804
:1000D00000000000F9150008F915000800000000F4
:1000E000F9150008F9150008F915000800000000CE
:1000F0000000000000000000000000000000000000
:0C01000000000000000000005FF808F1A3
:10010C0010B5054C237833B9044B13B10448AFF345
:10011C0000800123237010BD90000020000000001F
:10012C00282C000808B5034B1BB103490348AFF357
:10013C00008008BD0000000094000020282C00085E
:10014C0080B483B000AF7860094A7B6852F82330E2
:10015C00012B06D1064A7B68002142F823100123AB
:10016C0000E0002318460C37BD4680BC704700BF2A
:10017C00D000002080B483B000AF7860044A7B6864
:10018C00012142F8231000BF0C37BD4680BC7047DC
:10019C00D000002080B582B000AF78607B68032B64
:1001AC0023D801A252F823F0C5010008D30100089E
:1001BC00DF010008EB0100084FF400510E4801F07C
:1001CC0001FD034613E001210C4801F0FBFC034642
:1001DC000DE00221094801F0F5FC034607E004217B
:1001EC00064801F0EFFC034601E000BF002318466F
:1001FC000837BD4680BD00BF00100140000801401B
:10020C0080B582B000AF00237B6064E0364A7B6827
:10021C0052F8232035497B6841F82320344A7B6807
:10022C0052F8232030497B6841F823207868FFF787
:10023C00B1FF02462E497B6841F823202B4A7B688C
:10024C0052F8232028497B6851F823309A423FD139
:10025C00254A7B6852F8232025497B6851F82330C6
:10026C009A4235D1234A7B6852F8232020497B6877
:10027C0051F823309A4217D01D4A7B6852F823203C
:10028C001C497B6841F82320194A7B6852F82330BB
:10029C00002B1DD17868FFF76DFF174A7B684FF470
:1002AC00967142F8231013E0134A7B6852F82330FE
:1002BC005A1E11497B6841F823200F4A7B6852F87B
:1002CC002330002B04D10B4A7B68012142F8231008
:1002DC007B6801337B607B68042B97DD00BF00BF1C
:1002EC000837BD4680BD00BF140000200000002070
:1002FC00280000203C0000205000002080B582B077
:10030C0000AF78607B68092B00F2BC8001A252F828
:10031C0023F000BF4903000891030008B103000853
:10032C00D1030008F103000811040008310400088F
:10033C0051040008910400087104000800220121F6
:10034C00534801F056FC00220221514801F051FCA7
:10035C00002204214E4801F04CFC002208214C489C
:10036C0001F047FC00221021494801F042FC002218
:10037C002021474801F03DFC01224021444801F076
:10038C0038FC80E001224121414801F032FC00227E
:10039C0006213F4801F02DFC012238213C4801F098
:1003AC0028FC70E001222421394801F022FC0022B3
:1003BC004321374801F01DFC00221821344801F07C
:1003CC0018FC60E001223021314801F012FC0022BF
:1003DC0007212F4801F00DFC002248212C4801F088
:1003EC0008FC50E001221921294801F002FC0022EE
:1003FC000621274801F0FDFB00226021244801F072
:10040C00F8FB40E001221221214801F0F2FB00220E
:10041C0005211F4801F0EDFB002268211C4801F06A
:10042C00E8FB30E001220221194801F0E2FB002236
:10043C001521174801F0DDFB00226821144801F05A
:10044C00D8FB20E001224021114801F0D2FB002210
:10045C0007210F4801F0CDFB012238210C4801F097
:10046C00C8FB10E001221021094801F0C2FB002258
:10047C000721074801F0BDFB00226821044801F068
:10048C00B8FB00E000BF00BF0837BD4680BD00BF11
:10049C00000C014080B582B000AF78607B68092BFE
:1004AC0000F2C38001A252F823F000BFE10400085F
:1004BC00070500082D0500085305000879050008FC
:1004CC009F050008C5050008EB0500083706000865
:1004DC001106000801224FF40051564801F089FB27
:1004EC0000224FF46071534801F083FB00224FF45B
:1004FC00E051504801F07DFB98E001224FF402518D
:10050C004C4801F076FB00224FF44071494801F051
:10051C0070FB01224FF4E051464801F06AFB85E084
:10052C0001224FF49051434801F063FB00224FF439
:10053C000651404801F05DFB00224FF440613D48FC
:10054C0001F057FB72E001224FF4C051394801F021
:10055C0050FB00224FF46071364801F04AFB002238
:10056C004FF41051334801F044FB5FE001224FF48B
:10057C004861304801F03DFB00224FF440712D489A
:10058C0001F037FB00224FF440512A4801F031FBB7
:10059C004CE001224FF41061264801F02AFB0022A6
:1005AC004FF42071234801F024FB00224FF45051EA
:1005BC00204801F01EFB39E001224FF480711D48E8
:1005CC0001F017FB00224FF428611A4801F011FBCF
:1005DC0000224FF45051174801F00BFB26E001228A
:1005EC004FF40051134801F004FB00224FF46071EA
:1005FC00104801F0FEFA01224FF4E0510D4801F0D1
:10060C00F8FA13E001224FF400610A4801F0F1FA04
:10061C0000224FF46071074801F0EBFA00224FF40E
:10062C005051044801F0E5FA00E000BF00BF083764
:10063C00BD4680BD000C014080B483B000AF786033
:10064C007B68092B17DD7968104B83FB01239A100B
:10065C00CB17D21A13469B0013445B00CA1A0C4BDF
:10066C001A607B68094A82FB03129210DB17D31ABB
:10067C00074A536005E0064A7B681360044B00226E
:10068C005A6000BF0C37BD4680BC70476766666613
:10069C000001002080B483B000AF78607B68092B28
:1006AC0017DD7968104B83FB01239A10CB17D21AF4
:1006BC0013469B0013445B00CA1A0C4B1A607B68F0
:1006CC00094A82FB03129210DB17D31A074A5360B4
:1006DC0005E0064A7B681360044B00225A6000BF99
:1006EC000C37BD4680BC704767666666F800002014
:1006FC0080B500AF164B1B68012B02D0022B12D019
:10070C0023E0144B5B681846FFF7F8FD00224FF40A
:10071C000061114801F06DFA01224FF480510E482E
:10072C0001F067FA11E00B4B1B681846FFF7E6FD6A
:10073C0001224FF40061084801F05BFA00224FF4EB
:10074C008051054801F055FA00BF00BF80BD00BFC5
:10075C00CC000020000100200008014080B500AF53
:10076C00164B1B68012B02D0022B12D023E0144B2A
:10077C005B681846FFF78EFE00224FF400511148BB
:10078C0001F037FA01224FF480410E4801F031FAA2
:10079C0011E00B4B1B681846FFF77CFE01224FF44F
:1007AC000051084801F025FA00224FF48041054819
:1007BC0001F01FFA00BF00BF80BD00BFCC000020BD
:1007CC00F80000200008014080B500AF3E4B1B68CC
:1007DC00012B0ED1012220213C4801F00AFA002203
:1007EC0040213A4801F005FA00228021374801F0F7
:1007FC0000FA374B1B68012B0ED100222021334805
:10080C0001F0F7F901224021304801F0F2F9002201
:10081C0080212E4801F0EDF92E4B1B68012B0ED1D7
:10082C0000222021294801F0E4F900224021274828
:10083C0001F0DFF901228021244801F0DAF9264B7E
:10084C001B68012B11D101224FF480711F4801F05C
:10085C00D0F900224FF400711C4801F0CAF90022B3
:10086C004FF48061194801F0C4F91C4B1B68012B33
:10087C0011D100224FF48071144801F0BAF9012211
:10088C004FF40071114801F0B4F900224FF480616B
:10089C000E4801F0AEF9124B1B68012B11D100224E
:1008AC004FF48071094801F0A4F900224FF4007153
:1008BC00064801F09EF901224FF48061034801F0D3
:1008CC0098F900BF80BD00BF640000200008014003
:1008DC00B0000020AC000020B4000020B8000020C4
:1008EC006800002080B500AF3A4B1B680B3B032B14
:1008FC0067D801A252F823F015090008270900084F
:10090C00970900085F090008324B0C221A604FF45B
:10091C007A71052000F066FC5AE02F4B1B68002B07
:10092C0003DC2E4B1B682C4A13602D4B5B69012B8F
:10093C0049D1294B1B681846FFF77EFE264B1B68D6
:10094C00013B254A13604FF47A71052000F04AFCF4
:10095C0039E0214B1B68002B03DC224B1B681E4A21
:10096C0013601F4B5B69012B2FD11B4B1B68184667
:10097C00FFF762FE184B1B68013B174A13604FF4DC
:10098C007A71052000F02EFC1FE0134B1B68002B26
:10099C0003DC154B1B68104A1360114B5B69012B70
:1009AC0015D10D4B1B681846FFF746FE0A4B1B680A
:1009BC00013B094A13604FF47A71052000F012FCD8
:1009CC0005E000BF04E000BF02E000BF00E000BF94
:1009DC0000BF80BDC0000020080100207000002076
:1009EC0080010020740000206C00002080B500AF56
:1009FC003A4B1B680B3B032B67D801A252F823F030
:100A0C001D0A00089F0A0008670A00082F0A000840
:100A1C00324B0E221A604FF47A71062000F0E2FB82
:100A2C005AE02F4B1B68002B03DC2E4B1B682C4A07
:100A3C0013602D4B9B69012B49D1294B1B68184620
:100A4C00FFF728FE264B1B68013B254A13604FF429
:100A5C007A71062000F0C6FB39E0214B1B68002B95
:100A6C0003DC224B1B681E4A13601F4B9B69012B36
:100A7C002FD11B4B1B681846FFF70CFE184B1B683D
:100A8C00013B174A13604FF47A71062000F0AAFB61
:100A9C001FE0134B1B68002B03DC154B1B68104A23
:100AAC001360114B9B69012B15D10D4B1B6818461C
:100ABC00FFF7F0FD0A4B1B68013B094A13604FF42A
:100ACC007A71062000F08EFB05E000BF04E000BF49
:100ADC0002E000BF00E000BF00BF80BDC4000020EA
:100AEC000C01002074000020800100206C0000200C
:100AFC007000002080B500AFFFF7F4FEFFF776FF23
:100B0C0000BF80BD80B500AF00F070FC294B1B68A6
:100B1C000B3B032B44D801A252F823F0390B0008ED
:100B2C004D0B00088D0B00086D0B0008214B0C229F
:100B3C001A60214B1B681946012000F053FB36E06C
:100B4C00FFF742FE1D4B5B68012B2BD1194B0E227C
:100B5C001A601B4B1B681946012000F043FB21E077
:100B6C00FFF732FE154B5B68012B1DD1114B0D228B
:100B7C001A60144B1B681946012000F033FB13E07C
:100B8C00FFF722FE0D4B5B68012B0FD1094B0C229A
:100B9C001A60094B1B681946012000F023FB05E085
:100BAC0000BF04E000BF02E000BF00E000BF00BFD8
:100BBC0080BD00BFC0000020780000208001002014
:100BCC00800000207C00002080B500AF00F07CFC91
:100BDC00294B1B680B3B032B44D801A252F823F082
:100BEC00FD0B0008510C0008310C0008110C00081A
:100BFC00214B0E221A60214B1B681946022000F073
:100C0C00F1FA36E0FFF7E0FD1D4B9B68012B2BD171
:100C1C00194B0D221A601B4B1B681946022000F061
:100C2C00E1FA21E0FFF7D0FD154B9B68012B1DD19C
:100C3C00114B0C221A60144B1B681946022000F051
:100C4C00D1FA13E0FFF7C0FD0D4B9B68012B0FD1C0
:100C5C00094B0E221A60094B1B681946022000F042
:100C6C00C1FA05E000BF04E000BF02E000BF00E0F5
:100C7C0000BF00BF80BD00BFC4000020800000206A
:100C8C00800100207C0000207800002080B500AF9F
:100C9C00FFF738FFFFF798FF00BF80BD80B500AFAE
:100CAC0000F0A4FB124B1B68182B0ED0182B1CDC6D
:100CBC00162B02D0172B10D017E0FFF785FD0D4B2C
:100CCC001B681846FFF7B8FC10E0FFF77DFD0A4BD8
:100CDC001B681846FFF7B0FC08E0FFF775FD074BE3
:100CEC001B681846FFF7A8FC00E000BF00BF80BDE2
:100CFC00C00000206C000020700000207400002058
:100D0C0080B500AF00F0E0FB0F4B1B68182B0CD02C
:100D1C00182B16DC162B02D0172B0CD011E0FFF77A
:100D2C0053FD0220FFF7B6FC0CE0FFF74DFD04204D
:100D3C00FFF7B0FC06E0FFF747FD0320FFF7AAFC26
:100D4C0000E000BF00BF80BDC400002080B500AF34
:100D5C00FFF7A4FFFFF7D4FF00BF80BD80B500AF45
:100D6C000120FFF7EDF90346012B04D1064B1B685C
:100D7C000133054A1360044B1B68052B02D1024B4F
:100D8C0000221A6000BF80BDC800002080B500AFF3
:100D9C00FFF7E4FF6E4B1B68042B00F2CD8001A221
:100DAC0052F823F0C50D0008E90D0008FF0D0008EE
:100DBC006D0E0008D90E0008654B01221A60654BB8
:100DCC000B221A60644B0B221A60644B1B68644A3A
:100DDC001360644B1B68644A1360B6E00120FFF794
:100DEC00AFF90346012B40F0A980594B02221A603F
:100DFC00A4E0584B16221A60574B16221A60012099
:100E0C00FFF79EF90346012B02D1514B03221A60C6
:100E1C000220FFF795F90346012B04D1534B1B68B5
:100E2C000233524A13600320FFF78AF90346012B61
:100E3C0040F086804D4B1B684FF47A7202FB03F234
:100E4C004B4B1B6813444A4A1360444B1A68474B7C
:100E5C001B681344414A1360444B00221A606FE034
:100E6C003C4B17221A603C4B17221A600120FFF7EB
:100E7C0067F90346012B02D1354B04221A6002207C
:100E8C00FFF75EF90346012B04D1384B1B68023384
:100E9C00364A13600320FFF753F90346012B51D157
:100EAC00324B1B684FF47A7202FB03F2314B1B6816
:100EBC001344304A1360304B1A682C4B1B68134494
:100ECC002D4A1360294B00221A603BE0214B18225B
:100EDC001A60214B18221A600120FFF731F90346E2
:100EEC00012B02D11A4B00221A600220FFF728F9BD
:100EFC000346012B04D11D4B1B6802331B4A1360A4
:100F0C000320FFF71DF90346012B1DD1174B1B685E
:100F1C004FF47A7202FB03F2184B1B681344174A06
:100F2C001360104B1A68114B1B6813440D4A136065
:100F3C000E4B00221A6007E000BF06E000BF04E081
:100F4C0000BF02E000BF00E000BF00BF80BD00BFDB
:100F5C00C8000020C0000020C40000206C0000204D
:100F6C0008010020700000200C010020BC000020B3
:100F7C00780000207C0000207400002080000020FD
:100F8C0080B500AF00F034FB00F014F800F09AF8D4
:100F9C0000F04CF8064801F089FA00F001FAFFF76E
:100FAC0075FEFFF7A7FDFFF7D1FEFFF7EFFEF4E7A5
:100FBC001001002080B590B000AF07F11803282273
:100FCC000021184601F022FE3B1D00221A605A60D7
:100FDC009A60DA601A610223BB610123BB621023A1
:100FEC00FB6200237B6307F11803184600F032FE06
:100FFC000346002B01D000F0EFF80F237B60002399
:10100C00BB600023FB6000233B6100237B613B1D25
:10101C000021184601F09EF80346002B01D000F089
:10102C00DBF800BF4037BD4680BD000080B586B000
:10103C0000AF07F1080300221A605A609A60DA6068
:10104C003B4600221A605A601D4B4FF080421A60DA
:10105C001B4B41F63F725A60194B00229A60184B99
:10106C000922DA60164B00221A61154B00229A6194
:10107C00134801F0CBF90346002B01D000F0ACF87B
:10108C004FF48053BB6007F1080319460C4801F07C
:10109C0049FB0346002B01D000F09EF800233B6077
:1010AC0000237B603B461946054801F021FD0346B1
:1010BC00002B01D000F090F800BF1837BD4680BD62
:1010CC001001002080B588B000AF07F1100300229A
:1010DC001A605A609A60DA60354B9B69344A43F067
:1010EC0010039361324B9B6903F01003FB60FB68A8
:1010FC002F4B9B692E4A43F0040393612C4B9B6945
:10110C0003F00403BB60BB68294B9B69284A43F07E
:10111C0008039361264B9B6903F008037B607B6893
:10112C0000224FF6F871234800F063FD002243F6CD
:10113C00FF71214800F05DFD4FF400533B6100232B
:10114C007B610023BB6107F1100319461B4800F0BB
:10115C00BFFB07233B6100237B610023BB6107F1CD
:10116C0010031946134800F0B3FB4FF6F8733B61BC
:10117C0001237B610023BB610223FB6107F1100398
:10118C0019460C4800F0A4FB43F6FF733B610123A6
:10119C007B610023BB610223FB6107F1100319463D
:1011AC00054800F095FB00BF2037BD4680BD00BF51
:1011BC000010024000080140000C014000100140EA
:1011CC0080B582B000AF786000F02CF8FFF718F80B
:1011DC0000BF0837BD4680BD80B400AF72B600BFFB
:1011EC00FEE7000080B483B000AF786039600A4A33
:1011FC007B68002142F823103B68084A82FB0312EB
:10120C009210DB17D21A06497B6841F8232000BFE5
:10121C000C37BD4680BC704780010020676666664F
:10122C005801002080B483B000AF00237B601CE029
:10123C00124A7B6852F82330002B13DD0F4A7B686F
:10124C0052F823305A1E0D497B6841F823200B4A73
:10125C007B6852F82330002B04DC094A7B6801219F
:10126C0042F823107B6801337B607B68092BDFDD40
:10127C0000BF00BF0C37BD4680BC70475801002032
:10128C008001002080B485B000AF154B9B69144AD7
:10129C0043F001039361124B9B6903F00103BB60A4
:1012AC00BB680F4BDB690E4A43F08053D3610C4B88
:1012BC00DB6903F080537B607B680A4B5B68FB60E7
:1012CC00FB6823F0E063FB60FB6843F08063FB602A
:1012DC00044AFB68536000BF1437BD4680BC70479E
:1012EC00001002400000014080B584B000AF78606F
:1012FC007B681B68B3F1804F13D10C4BDB690B4A35
:10130C0043F00103D361094BDB6903F00103FB607C
:10131C00FB68002200211C2000F0A3FA1C2000F026
:10132C00BCFA00BF1037BD4680BD00BF00100240A4
:10133C0080B400AFFEE780B400AFFEE780B400AF2E
:10134C00FEE780B400AFFEE780B400AFFEE780B4E8
:10135C0000AF00BFBD4680BC704780B400AF00BF7B
:10136C00BD4680BC704780B400AF00BFBD4680BC9A
:10137C00704780B500AF00F081F900BF80BD000060
:10138C0080B500AF024801F0DDF800BF80BD00BFA2
:10139C001001002080B400AF00BFBD4680BC704778
:1013AC0080B500AF0E4B1B68012B17D110210D48D7
:1013BC0000F037FCFFF79CF9FFF7D0F90A4B1B68DC
:1013CC00032B02D1084B00221A60074B1B68013318
:1013DC00054A1360FA210020FFF704FF00BF80BD0F
:1013EC008001002000080140CC00002080B400AF38
:1013FC00314B1B680C3B0C2B58D801A252F823F034
:10140C00411400089114000869140008B91400086C
:10141C00B9140008B9140008B9140008B91400086C
:10142C00B9140008B914000855140008A5140008D4
:10143C007D140008214B01221A60214B00221A60F6
:10144C00204B00221A6032E01C4B01221A601C4B0C
:10145C0000221A601B4B00221A6028E0174B002256
:10146C001A60174B01221A60164B00221A601EE0FC
:10147C00124B00221A60124B01221A60114B0022EF
:10148C001A6014E00D4B00221A600D4B00221A60FA
:10149C000C4B01221A600AE0084B00221A60084B20
:1014AC0000221A60074B01221A6000E000BF00BF47
:1014BC00BD4680BC704700BFC00000206400002007
:1014CC00AC000020B000002080B400AF314B1B6892
:1014DC000C3B0C2B58D801A252F823F01D15000818
:1014EC0045150008311500089515000895150008DC
:1014FC009515000895150008951500089515000818
:10150C009515000859150008811500086D1500087F
:10151C00214B01221A60214B00221A60204B002221
:10152C001A6032E01C4B00221A601C4B01221A601C
:10153C001B4B00221A6028E0174B00221A60174B35
:10154C0000221A60164B01221A601EE0124B012277
:10155C001A60124B00221A60114B00221A6014E020
:10156C000D4B00221A600D4B01221A600C4B00220D
:10157C001A600AE0084B00221A60084B00221A601D
:10158C00074B01221A6000E000BF00BFBD4680BCC3
:10159C00704700BFC4000020B40000206800002089
:1015AC00B8000020FFF7F6FE0B480C490C4A00234C
:1015BC0002E0D458C4500433C4188C42F9D3094AFD
:1015CC00094C002301E013600432A242FBD301F06A
:1015DC00F9FAFFF7D5FC70470000002090000020BE
:1015EC006C2C000890000020AC010020FEE70000ED
:1015FC0080B500AF084B1B68074A43F0100313601B
:10160C00032000F023F90F2000F008F8FFF73AFE52
:10161C000023184680BD00BF0020024080B582B078
:10162C0000AF7860124B1A68124B1B7819464FF4B6
:10163C007A73B3FBF1F3B2FBF3F3184600F03BF90A
:10164C000346002B01D001230EE07B680F2B0AD838
:10165C00002279684FF0FF3000F003F9064A7B68EE
:10166C001360002300E0012318460837BD4680BDF7
:10167C00840000208C0000208800002080B400AF83
:10168C00054B1B781A46054B1B681344034A136021
:10169C0000BFBD4680BC70478C000020A801002014
:1016AC0080B400AF024B1B681846BD4680BC704727
:1016BC00A801002080B485B000AF78607B6803F08F
:1016CC000703FB600C4BDB68BB60BA684FF6FF038B
:1016DC001340BB60FB681A02BB68134343F0BF6343
:1016EC0043F40033BB60044ABB68D36000BF1437BB
:1016FC00BD4680BC704700BF00ED00E080B400AF79
:10170C00044BDB681B0A03F007031846BD4680BC7C
:10171C00704700BF00ED00E080B483B000AF03461B
:10172C00FB7197F90730002B0BDBFB7903F01F02E1
:10173C00064997F907305B09012000FA02F241F8DB
:10174C00232000BF0C37BD4680BC704700E100E091
:10175C0080B483B000AF03463960FB7197F9073052
:10176C00002B0ADB3B68DAB20C4997F907301201FF
:10177C00D2B20B4483F800230AE03B68DAB2084982
:10178C00FB7903F00F03043B1201D2B20B441A761F
:10179C0000BF0C37BD4680BC704700BF00E100E0C5
:1017AC0000ED00E080B489B000AFF860B9607A60F9
:1017BC00FB6803F00703FB61FB69C3F10703042B10
:1017CC0028BF0423BB61FB690433062B02D9FB69D8
:1017DC00033B00E000237B614FF0FF32BB6902FA50
:1017EC0003F3DA43BB681A407B699A404FF0FF3130
:1017FC007B6901FA03F3D9437B680B40134318460A
:10180C002437BD4680BC704780B582B000AF78608D
:10181C007B68013BB3F1807F01D301230FE00A4ABF
:10182C007B68013B53600F214FF0FF30FFF790FFB7
:10183C00054B00229A60044B07221A6000231846BD
:10184C000837BD4680BD00BF10E000E080B582B017
:10185C0000AF78607868FFF72DFF00BF0837BD46F2
:10186C0080BD80B586B000AF0346B9607A60FB736B
:10187C0000237B61FFF742FF78617A68B968786969
:10188C00FFF790FF024697F90F3011461846FFF705
:10189C005FFF00BF1837BD4680BD80B582B000AF7A
:1018AC000346FB7197F907301846FFF735FF00BF69
:1018BC000837BD4680BD80B582B000AF78607868CF
:1018CC00FFF7A2FF034618460837BD4680BD00004F
:1018DC0080B48BB000AF7860396000237B6200234A
:1018EC003B6248E101227B6A02FA03F3FB613B682D
:1018FC001B68FA691340BB61BA69FB699A4240F0F4
:10190C0037813B685B68A34A93425ED0A14A9342FD
:10191C0075D8A14A934258D09F4A93426FD89F4A98
:10192C00934252D09D4A934269D89D4A93424CD0DF
:10193C009B4A934263D89B4A934246D0994A93421E
:10194C005DD8122B2AD8122B59D801A252F823F0A9
:10195C00D7190008B1190008C3190008051A0008A6
:10196C000B1A00080B1A00080B1A00080B1A0008B7
:10197C000B1A00080B1A00080B1A00080B1A0008A7
:10198C000B1A00080B1A00080B1A00080B1A000897
:10199C000B1A0008B9190008CD190008824A9342A5
:1019AC0013D02CE03B68DB683B6229E03B68DB68CA
:1019BC0004333B6224E03B68DB6808333B621FE086
:1019CC003B68DB680C333B621AE03B689B68002B7E
:1019DC0002D104233B6213E03B689B68012B05D1C9
:1019EC0008233B627B68FA691A6109E008233B62B1
:1019FC007B68FA695A6103E000233B6200E000BF98
:101A0C00BB69FF2B01D87B6801E07B6804337B61E9
:101A1C00BB69FF2B02D87B6A9B0002E07B6A083B08
:101A2C009B003B617B691A680F213B6901FA03F348
:101A3C00DB431A40396A3B6901FA03F31A437B69A9
:101A4C001A603B685B6803F08053002B00F09080B9
:101A5C00564B9B69554A43F001039361534B9B6969
:101A6C0003F00103BB60BB68514A7B6A9B080233DD
:101A7C0052F82330FB607B6A03F003039B000F22B8
:101A8C0002FA03F3DB43FA681340FB607B68494AB4
:101A9C0093420DD07B68484A934207D07B68474AF3
:101AAC00934201D1022304E0032302E0012300E06E
:101ABC0000237A6A02F0030292009340FA681343FF
:101ACC00FB603B497B6A9B080233FA6841F8232090
:101ADC003B685B6803F48013002B06D0384B9A6884
:101AEC003749BB6913438B6006E0354B9A68BB6979
:101AFC00DB43334913408B603B685B6803F4001392
:101B0C00002B06D02E4BDA682D49BB691343CB60F2
:101B1C0006E02B4BDA68BB69DB4329491340CB60E9
:101B2C003B685B6803F40033002B06D0244B5A68E7
:101B3C002349BB6913434B6006E0214B5A68BB69D0
:101B4C00DB431F4913404B603B685B6803F48033F5
:101B5C00002B06D01A4B1A681949BB6913430B604A
:101B6C0006E0174B1A68BB69DB43154913400B6041
:101B7C007B6A01337B623B681A687B6A22FA03F347
:101B8C00002B7FF4AFAE00BF00BF2C37BD4680BC2E
:101B9C00704700BF0000321000003110000022100E
:101BAC000000211000001210000011100010024063
:101BBC000000014000080140000C014000100140F1
:101BCC000004014080B485B000AF78600B467B8088
:101BDC007B689A687B881340002B02D00123FB732F
:101BEC0001E00023FB73FB7B18461437BD4680BC19
:101BFC00704780B483B000AF78600B467B8013468F
:101C0C007B707B78002B03D07A887B681A6103E0A9
:101C1C007B881A047B681A6100BF0C37BD4680BCF8
:101C2C00704780B485B000AF78600B467B807B68D2
:101C3C00DB68FB607A88FB6813401A04FB68D943A5
:101C4C007B880B401A437B681A6100BF1437BD4672
:101C5C0080BC704780B586B000AF78607B68002B85
:101C6C0001D101236CE27B681B6803F00103002B9C
:101C7C0000F08780924B5B6803F00C03042B0CD0B4
:101C8C008F4B5B6803F00C03082B12D18C4B5B68F9
:101C9C0003F48033B3F5803F0BD1894B1B6803F4FD
:101CAC000033002B6CD07B685B68002B68D1012360
:101CBC0046E27B685B68B3F5803F06D1804B1B68BE
:101CCC007F4A43F4803313602EE07B685B68002B03
:101CDC000CD17B4B1B687A4A23F480331360784B0E
:101CEC001B68774A23F4802313601DE07B685B68D4
:101CFC00B3F5A02F0CD1724B1B68714A43F48023AF
:101D0C0013606F4B1B686E4A43F4803313600BE017
:101D1C006B4B1B686A4A23F480331360684B1B6857
:101D2C00674A23F4802313607B685B68002B13D015
:101D3C00FFF7B6FC386108E0FFF7B2FC02463B69DE
:101D4C00D31A642B01D90323FAE15D4B1B6803F40E
:101D5C000033002BF0D014E0FFF7A2FC386108E050
:101D6C00FFF79EFC02463B69D31A642B01D903236F
:101D7C00E6E1534B1B6803F40033002BF0D100E079
:101D8C0000BF7B681B6803F00203002B63D04C4B35
:101D9C005B6803F00C03002B0BD0494B5B6803F022
:101DAC000C03082B1CD1464B5B6803F48033002BCF
:101DBC0016D1434B1B6803F00203002B05D07B6844
:101DCC001B69012B01D00123BAE13D4B1B6823F0A9
:101DDC00F8027B685B69DB00394913430B603AE01E
:101DEC007B681B69002B20D0364B01221A60FFF751
:101DFC0057FC386108E0FFF753FC02463B69D31AE5
:101E0C00022B01D903239BE12D4B1B6803F002032A
:101E1C00002BF0D02A4B1B6823F0F8027B685B691F
:101E2C00DB00274913430B6015E0264B00221A6098
:101E3C00FFF736FC386108E0FFF732FC02463B69DD
:101E4C00D31A022B01D903237AE11D4B1B6803F033
:101E5C000203002BF0D17B681B6803F00803002BF6
:101E6C003AD07B689B69002B19D0174B01221A6062
:101E7C00FFF716FC386108E0FFF712FC02463B69DD
:101E8C00D31A022B01D903235AE10D4B5B6A03F0E1
:101E9C000203002BF0D0012000F09AFA1CE00A4B50
:101EAC0000221A60FFF7FCFB38610FE0FFF7F8FB2C
:101EBC0002463B69D31A022B08D9032340E100BF29
:101ECC000010024000004242800442429E4B5B6A7A
:101EDC0003F00203002BE9D17B681B6803F00403B9
:101EEC00002B00F0A6800023FB75974BDB6903F0F9
:101EFC008053002B0DD1944BDB69934A43F08053F4
:101F0C00D361914BDB6903F08053BB60BB68012349
:101F1C00FB758E4B1B6803F48073002B18D18B4B15
:101F2C001B688A4A43F480731360FFF7B9FB38616E
:101F3C0008E0FFF7B5FB02463B69D31A642B01D9C5
:101F4C000323FDE0814B1B6803F48073002BF0D05E
:101F5C007B68DB68012B06D17B4B1B6A7A4A43F00A
:101F6C00010313622DE07B68DB68002B0CD1764BF0
:101F7C001B6A754A23F001031362734B1B6A724A86
:101F8C0023F0040313621CE07B68DB68052B0CD187
:101F9C006D4B1B6A6C4A43F0040313626A4B1B6A59
:101FAC00694A43F0010313620BE0674B1B6A664AF4
:101FBC0023F001031362644B1B6A634A23F004038E
:101FCC0013627B68DB68002B15D0FFF769FB386167
:101FDC000AE0FFF765FB02463B69D31A41F28832EF
:101FEC00934201D90323ABE0574B1B6A03F0020366
:101FFC00002BEED014E0FFF753FB38610AE0FFF73B
:10200C004FFB02463B69D31A41F28832934201D905
:10201C00032395E04C4B1B6A03F00203002BEED11B
:10202C00FB7D012B05D1484BDB69474A23F08053DC
:10203C00D3617B68DB69002B00F08180424B5B68CD
:10204C0003F00C03082B61D07B68DB69022B46D1B3
:10205C003F4B00221A60FFF723FB386108E0FFF7C3
:10206C001FFB02463B69D31A022B01D9032367E0FD
:10207C00354B1B6803F00073002BF0D17B681B6A97
:10208C00B3F5803F08D1304B5B6823F400327B689A
:10209C009B682D4913434B602B4B5B6823F47412E4
:1020AC007B68196A7B685B6A0B43274913434B6057
:1020BC00274B01221A60FFF7F3FA386108E0FFF7AB
:1020CC00EFFA02463B69D31A022B01D9032337E0FE
:1020DC001D4B1B6803F00073002BF0D02FE01C4B42
:1020EC0000221A60FFF7DCFA386108E0FFF7D8FA33
:1020FC0002463B69D31A022B01D9032320E0124B71
:10210C001B6803F00073002BF0D118E07B68DB69CF
:10211C00012B01D1012313E00B4B5B68FB60FB68C7
:10212C0003F480327B681B6A9A4206D1FB6803F485
:10213C0070127B685B6A9A4201D0012300E0002395
:10214C0018461837BD4680BD001002400070004094
:10215C006000424280B584B000AF786039607B6823
:10216C00002B01D10123D0E06A4B1B6803F007035D
:10217C003A689A4210D9674B1B6823F007026549ED
:10218C003B6813430B60634B1B6803F007033A680F
:10219C009A4201D00123B8E07B681B6803F002036C
:1021AC00002B20D07B681B6803F00403002B05D0A8
:1021BC00594B5B68584A43F4E06353607B681B6877
:1021CC0003F00803002B05D0534B5B68524A43F4D1
:1021DC0060535360504B5B6823F0F0027B689B6844
:1021EC004D4913434B607B681B6803F00103002BC4
:1021FC0040D07B685B68012B07D1474B1B6803F40D
:10220C000033002B15D101237FE07B685B68022B28
:10221C0007D1414B1B6803F00073002B09D101233C
:10222C0073E03D4B1B6803F00203002B01D101232B
:10223C006BE0394B5B6823F003027B685B683649C3
:10224C0013434B60FFF72CFAF8600AE0FFF728FA0B
:10225C000246FB68D31A41F28832934201D9032318
:10226C0053E02D4B5B6803F00C027B685B689B00B2
:10227C009A42EBD1274B1B6803F007033A689A424A
:10228C0010D2244B1B6823F0070222493B681343EE
:10229C000B60204B1B6803F007033A689A4201D08D
:1022AC00012332E07B681B6803F00403002B08D089
:1022BC00194B5B6823F4E0627B68DB6816491343B7
:1022CC004B607B681B6803F00803002B09D0124B92
:1022DC005B6823F460527B681B69DB000E49134377
:1022EC004B6000F021F802460B4B5B681B0903F0B6
:1022FC000F030A49CB5C22FA03F3094A1360094B1A
:10230C001B681846FFF78AF9002318461037BD469C
:10231C0080BD00BF0020024000100240402C00088D
:10232C00840000208800002080B487B000AF002318
:10233C00FB600023BB6000237B6100237B600023D8
:10234C003B611E4B5B68FB60FB6803F00C03042BCA
:10235C0002D0082B03D027E0194B3B6127E0FB6828
:10236C009B0C03F00F03174AD35C7B60FB6803F4F0
:10237C008033002B10D0114B5B685B0C03F0010316
:10238C00114AD35CBB607B680D4A02FB03F2BB684D
:10239C00B2FBF3F37B6104E07B680C4A02FB03F3B2
:1023AC007B617B693B6102E0054B3B6100BF3B6994
:1023BC0018461C37BD4680BC704700BF0010024059
:1023CC0000127A00502C0008602C000800093D0017
:1023DC0080B485B000AF78600A4B1B680A4AA2FB38
:1023EC0003235B0A7A6802FB03F3FB6000BFFB6804
:1023FC005A1EFA60002BF9D100BF00BF1437BD463E
:10240C0080BC704784000020D34D621080B582B030
:10241C0000AF78607B68002B01D1012341E07B6821
:10242C0093F83D30DBB2002B06D17B68002283F899
:10243C003C207868FEF758FF7B68022283F83D2029
:10244C007B681A687B6804331946104600F056FA0C
:10245C007B68012283F846207B68012283F83E20AA
:10246C007B68012283F83F207B68012283F840209F
:10247C007B68012283F841207B68012283F842208B
:10248C007B68012283F843207B68012283F8442077
:10249C007B68012283F845207B68012283F83D206C
:1024AC00002318460837BD4680BD000080B485B0B7
:1024BC0000AF78607B6893F83D30DBB2012B01D024
:1024CC00012335E07B68022283F83D207B681B6882
:1024DC00DA687B681B6842F00102DA607B681B6873
:1024EC00164A934209D07B681B68B3F1804F04D025
:1024FC007B681B68124A934211D17B681B689B68EE
:10250C0003F00703FB60FB68062B10D07B681B688D
:10251C001A687B681B6842F001021A6007E07B684E
:10252C001B681A687B681B6842F001021A60002362
:10253C0018461437BD4680BC704700BF002C0140C4
:10254C000004004080B584B000AF78607B681B68E5
:10255C00DB68FB607B681B681B69BB60BB6803F0B6
:10256C000203002B20D0FB6803F00203002B1BD0CE
:10257C007B681B686FF002021A617B6801221A7774
:10258C007B681B689B6903F00303002B03D07868FE
:10259C0000F098F905E0786800F08BF9786800F0A5
:1025AC009AF97B6800221A77BB6803F00403002BAE
:1025BC0020D0FB6803F00403002B1BD07B681B6846
:1025CC006FF004021A617B6802221A777B681B6821
:1025DC009B6903F44073002B03D0786800F072F908
:1025EC0005E0786800F065F9786800F074F97B68AC
:1025FC0000221A77BB6803F00803002B20D0FB687D
:10260C0003F00803002B1BD07B681B686FF00802DB
:10261C001A617B6804221A777B681B68DB6903F0FC
:10262C000303002B03D0786800F04CF905E07868C0
:10263C0000F03FF9786800F04EF97B6800221A77B9
:10264C00BB6803F01003002B20D0FB6803F01003D1
:10265C00002B1BD07B681B686FF010021A617B6823
:10266C0008221A777B681B68DB6903F44073002B24
:10267C0003D0786800F026F905E0786800F019F9C5
:10268C00786800F028F97B6800221A77BB6803F0A1
:10269C000103002B0CD0FB6803F00103002B07D0C7
:1026AC007B681B686FF001021A617868FEF788FD81
:1026BC00BB6803F08003002B0CD0FB6803F0800395
:1026CC00002B07D07B681B686FF080021A6178685A
:1026DC0000F06FFABB6803F04003002B0CD0FB68D2
:1026EC0003F04003002B07D07B681B686FF040029F
:1026FC001A61786800F0F8F8BB6803F02003002B2F
:10270C000CD0FB6803F02003002B07D07B681B6800
:10271C006FF020021A61786800F042FA00BF10379F
:10272C00BD4680BD80B584B000AF786039600023B1
:10273C00FB737B6893F83C30012B01D10223B4E08E
:10274C007B68012283F83C207B68022283F83D20C1
:10275C007B681B689B68BB60BB6823F07703BB601E
:10276C00BB6823F47F43BB607B681B68BA689A60C4
:10277C003B681B68B3F5005F3ED0B3F5005F00F219
:10278C008780B3F5805F00F08680B3F5805F7FD8DB
:10279C00702B1AD0702B7BD8602B50D0602B77D835
:1027AC00502B3CD0502B73D8402B58D0402B6FD88B
:1027BC00302B64D0302B6BD8202B60D0202B67D8DB
:1027CC00002B5CD0102B5AD062E07B6818683B68F9
:1027DC0099683B685A683B68DB6800F06AF97B686B
:1027EC001B689B68BB60BB6843F07703BB607B686E
:1027FC001B68BA689A604FE07B6818683B689968F8
:10280C003B685A683B68DB6800F053F97B681B68CF
:10281C009A687B681B6842F480429A603CE07B6853
:10282C0018683B6859683B68DB681A4600F0CAF8C0
:10283C007B681B685021184600F021F92CE07B685E
:10284C0018683B6859683B68DB681A4600F0E8F882
:10285C007B681B686021184600F011F91CE07B684E
:10286C0018683B6859683B68DB681A4600F0AAF8A0
:10287C007B681B684021184600F001F90CE07B686E
:10288C001A683B681B681946104600F0F8F803E01C
:10289C000123FB7300E000BF7B68012283F83D201D
:1028AC007B68002283F83C20FB7B18461037BD4622
:1028BC0080BD80B483B000AF786000BF0C37BD46DC
:1028CC0080BC704780B483B000AF786000BF0C3719
:1028DC00BD4680BC704780B483B000AF786000BF49
:1028EC000C37BD4680BC704780B483B000AF7860B5
:1028FC0000BF0C37BD4680BC7047000080B485B06B
:10290C0000AF786039607B681B68FB607B682B4A82
:10291C00934207D07B68B3F1804F03D07B68284A81
:10292C00934208D1FB6823F07003FB603B685B6843
:10293C00FA681343FB607B68204A934207D07B689C
:10294C00B3F1804F03D07B681D4A934208D1FB68DA
:10295C0023F44073FB603B68DB68FA681343FB604D
:10296C00FB6823F080023B685B691343FB607B6868
:10297C00FA681A603B689A687B68DA623B681A6886
:10298C007B689A627B680D4A934203D13B681A6953
:10299C007B681A637B6801225A617B681B6903F0B0
:1029AC000103002B05D07B681B6923F001027B68B7
:1029BC001A6100BF1437BD4680BC7047002C014023
:1029CC000004004080B487B000AFF860B9607A6052
:1029DC00FB681B6A7B61FB681B6A23F00102FB68C6
:1029EC001A62FB689B693B613B6923F0F0033B6116
:1029FC007B681B013A6913433B617B6923F00A0333
:102A0C007B617A69BB6813437B61FB683A699A61A5
:102A1C00FB687A691A6200BF1C37BD4680BC7047E0
:102A2C0080B487B000AFF860B9607A60FB681B6A4D
:102A3C007B61FB681B6A23F01002FB681A62FB685F
:102A4C009B693B613B6923F470433B617B681B03CF
:102A5C003A6913433B617B6923F0A0037B61BB683C
:102A6C001B017A6913437B61FB683A699A61FB68C5
:102A7C007A691A6200BF1C37BD4680BC704780B4AF
:102A8C0085B000AF786039607B689B68FB60FB6841
:102A9C0023F07003FB603A68FB68134343F00703B1
:102AAC00FB607B68FA689A6000BF1437BD4680BC37
:102ABC00704780B487B000AFF860B9607A603B6053
:102ACC00FB689B687B617B6923F47F437B613B687C
:102ADC001A027B681A43BB6813437A6913437B6100
:102AEC00FB687A699A6000BF1C37BD4680BC704792
:102AFC0080B485B000AF786039607B6893F83C3067
:102B0C00012B01D1022341E07B68012283F83C2098
:102B1C007B68022283F83D207B681B685B68FB6046
:102B2C007B681B689B68BB60FB6823F07003FB60D1
:102B3C003B681B68FA681343FB607B681B68FA6888
:102B4C005A607B681B68144A934209D07B681B68E7
:102B5C00B3F1804F04D07B681B68104A93420CD1B0
:102B6C00BB6823F08003BB603B685B68BA681343A7
:102B7C00BB607B681B68BA689A607B68012283F82B
:102B8C003D207B68002283F83C2000231846143734
:102B9C00BD4680BC704700BF002C014000040040C3
:102BAC0080B483B000AF786000BF0C37BD4680BCEA
:102BBC00704780B483B000AF786000BF0C37BD465F
:102BCC0080BC704770B500260C4D0D4C641BA410D6
:102BDC00A64209D100F022F800260A4D0A4C641BCB
:102BEC00A410A64205D170BD55F8043B9847013698
:102BFC00EEE755F8043B98470136F2E7642C0008E1
:102C0C00642C0008642C0008682C0008034602445D
:102C1C00934200D1704703F8011BF9E7F8B500BFE8
:102C2C00F8BC08BC9E467047F8B500BFF8BC08BCA1
:042C3C009E467047F9
:102C4000000000000000000001020304060708095C
:102C500002030405060708090A0B0C0D0E0F1010DD
:042C6000010200006D
:042C64003101000832
:042C68000D01000852
:102C6C000100000001000000010000000100000054
:102C7C000100000001000000010000000100000044
:102C8C000100000001000000010000000100000034
:102C9C000100000001000000010000000100000024
:102CAC000100000001000000010000000100000014
:102CBC002C0100002C0100002C0100002C01000054
:102CCC002C010000010000000100000005000000C4
:102CDC00030000000200000088130000D007000071
:102CEC00B80B000000127A00100000000100000078
:04000005080015B129
:00000001FF
